:060000000A128A110C280F
:10000800FE00030EF0000A08F1000A168A111C2EE1
:100018000A128A110F288313C230FD001530FE0022
:100028008230FF00A03084000A168A113E250A1289
:100038008A110A128A11FF270A128A11EF00831601
:100048000313C201C301C401C50183120313E101F3
:10005800E201E301E401E501E601E701E801E90164
:10006800EA01EB01EC01FA01FB0183010A128A158E
:10007800992C83120313DB000A168A11F2260A123E
:100088008A111230831203136D06031D4C284D2864
:10009800E9290A168A112D250A128A114330F60019
:1000A8009130F7008030F8000A168A11ED250A12FF
:1000B8008A117B0883120313D4005407A03E8400DE
:1000C80083130008F600840A00088403F7008630CA
:1000D800F8000A168A11ED250A128A115E30F60018
:1000E8009130F700C030F8000A168A11ED250A127F
:1000F8008A11C63083120313A0000A30F2000030C0
:10010800F3006B08D400D5015408F4005508F50035
:100118000A128A152D200A128A117208303E0A1610
:100128008A114D250A128A11C73083120313A000C1
:100138000A30F2000030F3006B08D400D5015408EF
:10014800F4005508F5000A168A1148270A128A1180
:100158007208303E0A168A114D250A128A11C830D3
:1001680083120313A0003A300A168A114D250A1289
:100178008A11C93083120313A0000A30F20000303C
:10018800F3006C08D400D5015408F4005508F500B4
:100198000A128A152D200A128A117208303E0A1690
:1001A8008A114D250A128A11CA3083120313A0003E
:1001B8000A30F2000030F3006C08D400D50154086E
:1001C800F4005508F5000A168A1148270A128A1100
:1001D8007208303E0A168A114D250A128A113B30E0
:1001E800F6009130F7009530F8000A168A11ED25CF
:1001F8000A128A11333083120313D600BB30D5009C
:10020800DF30D400D40B0629D50B0629D60B0629D6
:100218000A168A112D250A128A11CC30F600903060
:10022800F7008030F8000A168A11ED250A128A11A3
:100238007630F6009130F700C030F8000A168A11BF
:10024800ED250A128A112230F6009030F700D030DE
:10025800F8000A168A11ED250A128A11831203136F
:100268006B08D400D5015408F2005508F3003C305F
:10027800F4000030F5000A168A11C8250A128A11FE
:10028800831203136C087207E3000030031801306F
:100298007307E4006408E2006308E1006308F20001
:1002A8006408F3000030F31BFF30F400F500013060
:1002B8000A128A1129270A128A1175088312031350
:1002C800AD007408AC007308AB007208AA003E3099
:1002D800A900EB30A8008530A7001F30A6000A123D
:1002E8008A11E4230A128A11831203132908C3000E
:1002F8002808C2002708C1002608C0000A128A156B
:1003080094200A128A11831203134108E800400856
:10031800E7006308F2006408F3000030F31BFF30C5
:10032800F400F50001300A128A1129270A128A11ED
:10033800750883120313AD007408AC007308AB0092
:100348007208AA003D30A900F530A800C230A70005
:100358008F30A6000A128A11E4230A128A11831226
:1003680003132908C3002808C2002708C10026086B
:10037800C0000A128A1594200A128A1183120313E4
:100388004108E6004008E5006709D4006809D5007F
:10039800D40A0319D50A65085402D6006608031C56
:1003A800660A5502D7006308560783160313C4006C
:1003B8008312031364080318640A57078316031388
:1003C800C50083120313121507151F305B06031DA2
:1003D800EE29EF29F329121107110530EE006B08F9
:1003E800D400D5015408F2005508F3003C30F4005D
:1003F8000030F5000A168A11C8250A128A118312DC
:1004080003136C087207E300003003180130730708
:10041800E40008307B020318122A132A742A67089A
:100428006102D4006808031C680A6202D5006408E7
:10043800803AD6005508803A5602031D252A5408EA
:100448006302031C282A292A352A8030F6009130B5
:10045800F7008B30F8000A168A11ED250A128A1166
:10046800292B831203136709D4006809D500D40A1D
:100478000319D50A65085402D6006608031C660AE3
:100488005502D70061085607D80062080318620AA7
:100498005707D9006408803ADA005908803A5A02A6
:1004A800031D582A58086302031C5B2A5C2A682A21
:1004B8006430F6009130F7008B30F8000A168A1184
:1004C800ED250A128A11292B5830F6009130F700D1
:1004D8008B30F8000A168A11ED250A128A11292B89
:1004E80008307B06031D792A7A2A0C2B6308F20050
:1004F8006408F3000030F31BFF30F400F50001300E
:100508000A128A1129270A128A11750883120313FD
:10051800CB007408CA007308C9007208C8006108D3
:10052800F2006208F3000030F31BFF30F400F5001E
:1005380001300A128A1129270A128A1175088312B2
:100548000313C7007408C6007308C5007208C40006
:100558006108F2006208F3000030F31BFF30F4007A
:10056800F50001300A128A1129270A128A11750822
:1005780083120313AD007408AC007308AB00720853
:10058800AA003E30A900CC30A800CC30A700CD305E
:10059800A6000A128A11E4230A128A11831203138D
:1005A8002908C3002808C2002708C1002608C0007F
:1005B8000A168A11A4250A128A1183120313430802
:1005C800CF004208CE004108CD004008CC000A12F6
:1005D8008A150C210A128A11031CF32AF42A002B0B
:1005E8006430F6009130F7008B30F8000A168A1153
:1005F800ED250A128A11292B5830F6009130F700A0
:100608008B30F8000A168A11ED250A128A11292B57
:1006180009307B06031D112B122B1E2B6430F600AC
:100628009130F7008B30F8000A168A11ED250A126E
:100638008A11292B8030F6009130F7008B30F800B2
:100648000A168A11ED250A128A11C630831203137D
:10065800A0000A30F2000030F3006B08D400D50186
:100668005408F4005508F5000A128A152D200A12BC
:100678008A117208303E0A168A114D250A128A110B
:10068800C73083120313A0000A30F2000030F300D1
:100698006B08D400D5015408F4005508F5000A1673
:1006A8008A1148270A128A117208303E0A168A11DE
:1006B8004D250A128A11C83083120313A0003A305C
:1006C8000A168A114D250A128A11C930831203139A
:1006D800A0000A30F2000030F3006C08D400D50105
:1006E8005408F4005508F5000A128A152D200A123C
:1006F8008A117208303E0A168A114D250A128A118B
:10070800CA3083120313A0000A30F2000030F3004D
:100718006C08D400D5015408F4005508F5000A16F1
:100728008A1148270A128A117208303E0A168A115D
:100738004D250A128A11831203136C08031DA52B79
:10074800A62BE32B6B08031DAA2BAB2BE32B121153
:10075800071187140A168A112D250A128A114330A7
:10076800F6009030F7008030F8000A168A11ED255F
:100778000A128A117330F6009030F700C030F80082
:100788000A168A11ED250A128A11333083120313CF
:10079800D600BB30D500DF30D400D40BD12BD50B1D
:1007A800D12BD60BD12B831203138710EE01EE0A3F
:1007B8001030ED000A168A112D250A128A11080038
:1007C8008312031329088039B3002908AE002E07C5
:1007D800B900A81FF02BF12BF22B39143908031993
:1007E800F62BF72B062C390A031DFB2BFC2B042CAC
:1007F8000030A9000030A8000030A7000030A60093
:10080800A8170E2C0030A9000030A8000030A7005F
:100818000030A6002D088039FF007F08B3062D0898
:10082800AE002E07B400AC1F1A2C1B2C1C2C341441
:1008380034080319202C212C302C340A031D252CB4
:10084800262C2E2C0030AD000030AC000030AB0060
:100858000030AA00AC17382C0030AD000030AC00D6
:100868000030AB000030AA00340803193C2C3D2CA2
:10087800422C3908031D412C422C4B2C0030A90076
:100888000030A8000030A7000030A600282F260856
:10089800F2002C080A128A1504200A128A11730819
:1008A80083120313BF007208BE003E08AE00AF01FA
:1008B800B001B1013108B8003008B7002F08B60000
:1008C8002E08B5003F08AE00AF01B001B1013108F4
:1008D800BD003008BC002F08BB002E08BA0027084E
:1008E800F2002B080A128A1504200A128A117308CA
:1008F80083120313BF007208BE003E08AE00AF01AA
:10090800B001B1012E08B5072F0803110318013EE5
:1009180003198F2CB607300803110318013E031979
:10092800962CB707310803110318013E03199D2CB3
:10093800B8073F08AE00AF01B001B1012E08BA07F1
:100948002F0803110318013E0319AB2CBB0730080D
:1009580003110318013E0319B22CBC073108031117
:100968000318013E0319B92CBD072808F2002A080C
:100978000A128A1504200A128A11730883120313B3
:10098800BF007208BE003E08AE00AF01B001B10161
:100998002E08B5072F0803110318013E0319D52C9B
:1009A800B607300803110318013E0319DC2CB707FA
:1009B800310803110318013E0319E32CB8073F0857
:1009C800AE00AF01B001B1012E08BA072F0803111C
:1009D8000318013E0319F12CBB0730080311031853
:1009E800013E0319F82CBC07310803110318013E16
:1009F8000319FF2CBD070830AE000310B50DB60D66
:100A0800B70DB80DAE0B012D2708F2002A080A12FF
:100A18008A1504200A128A11730883120313BF006F
:100A28007208BE003E08AE003F08AF00B001B10139
:100A38002E08B5072F0803110318013E0319252DA9
:100A4800B607300803110318013E03192C2DB70708
:100A5800310803110318013E0319332DB80726087E
:100A6800F2002B080A128A1504200A128A11730848
:100A780083120313BF007208BE003E08AE003F0891
:100A8800AF00B001B1012E08B5072F0803110318F4
:100A9800013E0319502DB607300803110318013E13
:100AA8000319572DB707310803110318013E03191D
:100AB8005E2DB8070830AE000310B50DB60DB70DA2
:100AC800B80DAE0B602D2608F2002A080A128A1506
:100AD80004200A128A11730883120313BF007208D4
:100AE800BE003E08AE003F08AF00B001B1012E08BD
:100AF800B5072F0803110318013E0319842DB60703
:100B0800300803110318013E03198B2DB70731086C
:100B180003110318013E0319922DB8072708F200A4
:100B28002C080A128A1504200A128A1173088312E3
:100B38000313BF007208BE003E08AE003F08AF00B6
:100B4800B001B1012E08BA072F0803110318013E9E
:100B58000319AF2DBB07300803110318013E031911
:100B6800B62DBC07310803110318013E0319BD2D2A
:100B7800BD072808F2002B080A128A1504200A1259
:100B88008A11730883120313BF007208BE003E085F
:100B9800AE003F08AF00B001B1012E08BA072F0818
:100BA80003110318013E0319DA2DBB07300803119E
:100BB8000318013E0319E12DBC073108031103187E
:100BC800013E0319E82DBD072808F2002C080A1277
:100BD8008A1504200A128A11730883120313BF00AE
:100BE8007208BE003E08AE003F08AF00B001B10178
:100BF80008300310AE0DAF0DB00DB10DFF3E031D53
:100C0800FD2D2E08BA072F0803110318013E0319FA
:100C18000E2EBB07300803110318013E0319152EC9
:100C2800BC07310803110318013E03191C2EBD0728
:100C38003508AE003608AF003708B0003808B100F4
:100C480018300310B10CB00CAF0CAE0CFF3E031DF6
:100C5800252E2E08BA072F0803110318013E031981
:100C6800362EBB07300803110318013E03193D2E29
:100C7800BC07310803110318013E0319442EBD07B0
:100C88000830AE000310B50DB60DB70DB80DAE0B9C
:100C9800462E39083407AE00AF01AF0D2E08823E4C
:100CA800BE002F080318013EFF3EBF00782E01301A
:100CB800AE000310BA0DBB0DBC0DBD0DAE0B5D2E05
:100CC800B81F672E682E692E3A140130AE00031043
:100CD800B50DB60DB70DB80DAE0B6B2EFF30BE07B8
:100CE8000318BF0AFF30BF07BC1F7B2E7C2E5B2E6C
:100CF800B401B81F802E812E9D2EFF303505AE0021
:100D0800FF303605AF00FF303705B0007F303805BB
:100D1800B100310830042F042E040319942E952EA7
:100D2800982EB401B40A9D2E3A1C9B2E9C2E9D2E03
:100D3800952E34080319A12EA22ED32E0130BA07FE
:100D4800003003180130BB07003003180130BC071E
:100D5800003003180130BD073D1CB32EB42ED32E2E
:100D68003A08AE003B08AF003C08B0003D08B100AF
:100D78000130B200310DB10CB00CAF0CAE0CB20B9F
:100D8800BE2E3108BD003008BC002F08BB002E085D
:100D9800BA000130BE070318BF0A0030BF073F087A
:100DA800803AFF0080307F02031DDC2EFF303E02B8
:100DB800031CDF2EE02EEB2E7F3083120313BD00C1
:100DC8008030BC000030BB000030BA001C2F8312FA
:100DD80003133F08803AFF0080307F02031DF62E80
:100DE80001303E020318F92EFA2E062F0030831226
:100DF8000313BD000030BC000030BB000030BA0057
:100E0800B3011C2F831203133E08B900FF30BA0543
:100E1800FF30BB057F30BC050030BD05391C152FE0
:100E2800162F172FBC173908AE0003102E0CBD0063
:100E38003308FF007F08BD043D08A9003C08A8004E
:100E48003B08A7003A08A600080083120313A00075
:100E580020080319302F312F452FF51F342F352F38
:100E6800452F7209A2007309A3007409A40075092B
:100E7800A500A20A0319A30A0319A40A0319A50ABB
:100E88004D2F7508A5007408A4007308A300720804
:100E9800A2007508740473047204031D542F552F9F
:100EA8005E2F0030F5000030F4000030F300003011
:100EB800F200E22F9630A1006E2F0130FF007F086C
:100EC800A10701300310A50CA40CA30CA20CFF3E33
:100ED800031D662FFE302505031D732F742F612F08
:100EE800902F0130FF007F08A1070130A2070030D2
:100EF80003180130A307003003180130A40700309D
:100F080003180130A50701300310A50CA40CA30C8D
:100F1800A20CFF3E031D882FFF302505031D952FCA
:100F2800962F752FA22F0130A1020130F600031071
:100F3800A20DA30DA40DA50DF60B9B2FA41BA52F89
:100F4800A62FAC2F023021020318AB2FAC2F972FFE
:100F58002118AF2FB02FB82FFF30A205FF30A305FF
:100F68007F30A405FF30A5050310A10C2108F60069
:100F7800F701F801F90118300310F60DF70DF80D17
:100F8800F90DFF3E031DC02F7608A2047708A304BD
:100F98007808A4047908A50420080319D42FD52FAC
:100FA800DA2FF51FD82FD92FDA2FA5172508F50026
:100FB8002408F4002308F3002208F20008000A16A7
:100FC8008A1115250A128A110A128A11F9270A129A
:100FD8008A110A168A1120250A128A118316031308
:100FE800071187100B178B170800831603130608C1
:080FF8003F38860008000134B7
:1010080083120313A400A001A1017208F400F501E2
:101018007408A2007508A300241C132814281A2891
:101028002208A0070318A10A2308A107013003100A
:10103800A20DA30DFF3E031D1B280310A40C2408BA
:10104800031D2728282810282108F3002008F2006B
:101058000800F701F31F312832283928F209F3096B
:10106800F20A0319F30AF701F70AF51F3C283D288D
:101078004628F409F509F40A0319F50A0130FF00B6
:101088007F08F706F801F9017208730403194D285F
:101098004E288528F601F60A5C2801300310F20D67
:1010A800F30DFF3E031D52280130FF007F08F607AD
:1010B800F31F5F286028512801300310F80DF90D3F
:1010C800FF3E031D612873087502031D6D28720811
:1010D8007402031C7028712878287208F4027308B7
:1010E800031CF503F502781401300310F30CF20C1D
:1010F800FF3E031D79280130F602031D8428852848
:1011080060287708031989288A288F28F809F90997
:10111800F80A0319F90A7908F3007808F2000800B8
:10112800031083120313420D430DC9004908031D20
:101138009E289F28A8280030C3000030C200003035
:10114800C1000030C0000B294008C4004108C50098
:101158004208C6004308C7001F300310C70CC60C5E
:10116800C50CC40CFF3E031DB1284408C800C217B3
:10117800FF30C005FF30C105FF30C2050030C30590
:101188009630C902C91FC928CA28E4284908803AE4
:10119800973E0318D028D128D2289F280130031061
:1011A800C30CC20CC10CC00CFF3E031DD328013078
:1011B800FF007F08C907031DE228E328D228FB287F
:1011C80020304902031CE928EA28F6289F28013024
:1011D800C4000310C00DC10DC20DC30DC40BED2812
:1011E8000130C9024908031DFA28FB28EB284808E2
:1011F8000319FF2800290B29C009C109C209C3091D
:10120800C00A0319C10A0319C20A0319C30A08004C
:101218000030831203134805D00000304905D1007F
:1012280080304A05D2007F304B05D3005308520462
:1012380051045004031D212922292A290030CB00FA
:101248000030CA000030C9000030C80000304C052A
:10125800D00000304D05D10080304E05D2007F30DF
:101268004F05D3005308520451045004031D3D296F
:101278003E2946290030CF000030CE000030CD0096
:101288000030CC00CB1F49294A296E290030D000F4
:101298000030D1000030D2008030D3004808D0029E
:1012A8004908031C490F59295A29D1024A08031C25
:1012B8004A0F5F296029D2024B08031C4B0F65298E
:1012C8006629D3025308CB005208CA005108C90046
:1012D8005008C800CF1F7129722996290030D00004
:1012E8000030D1000030D2008030D3004C08D0024A
:1012F8004D08031C4D0F81298229D1024E08031C79
:101308004E0F87298829D2024F08031C4F0F8D29B9
:101318008E29D3025308CF005208CE005108CD00C1
:101328005008CC008030CB068030CF064F084B02E7
:10133800031DA8294E084A02031DA8294D08490281
:10134800031DA8294C0848020318AB29AC29AE296B
:101358000310AF290314080083120313A4001030EC
:101368006D06031DB829B929BF290A168A112D252A
:101378000A128A15FB013730831203132406031D52
:10138800C629C729D7290130FF007F08FB070C3081
:101398007B06031DD029D129D229FB010A168A11FF
:1013A8002D250A128A156330F6009030F700803038
:1013B800F8000A168A11ED250A128A15C030831220
:1013C8000313A0002A300A168A114D250A128A151D
:1013D8000A307B020318F129F229322A7B0883128A
:1013E8000313A2002207A03E840083130008F6001E
:1013F800840A00088403F700C230F8000A168A112C
:10140800ED250A128A157B0883120313A20022070E
:10141800A23E840083130008F600840A00088403AF
:10142800F7009230F8000A168A11ED250A128A157B
:101438007B0883120313A2002207A43E84008313AF
:101448000008F600840A00088403F700D230F80088
:101458000A168A11ED250A128A15A52A0A307B0672
:10146800031D372A382A702A7B0883120313A20027
:101478002207A03E840083130008F600840A0008AF
:101488008403F700C230F8000A168A11ED250A1203
:101498008A157B0883120313A2002207A23E840048
:1014A80083130008F600840A00088403F7009230CA
:1014B800F8000A168A11ED250A128A1583160313F5
:1014C8002008F6002108F700D230F8000A168A1121
:1014D800ED250A128A15A52A0B307B06031D752AED
:1014E800762AA52A7B0883120313A2002207A03EAE
:1014F800840083130008F600840A00088403F700B8
:10150800C230F8000A168A11ED250A128A158316C8
:1015180003132008F6002108F7009230F8000A1695
:101528008A11ED250A128A15831603132208F6007C
:101538002308F700D230F8000A168A11ED250A129E
:101548008A15080083120313A40011306D06031DC9
:10155800AE2AAF2AB52AFA010A168A112D250A12CF
:101568008A153730831203132406031DBC2ABD2AAB
:10157800CD2A0130FF007F08FA0705307A06031DDF
:10158800C62AC72AC82AFA010A168A112D250A125C
:101598008A15C030F6009030F7008030F8000A163F
:1015A8008A11ED250A128A15C03083120313A00090
:1015B8002A300A168A114D250A128A1503307A0232
:1015C8000318E72AE82A282B7A0883120313A200B3
:1015D8002207B83E840083130008F600840A000836
:1015E8008403F700C230F8000A168A11ED250A12A2
:1015F8008A157A0883120313A2002207BA3E8400D0
:1016080083130008F600840A00088403F700923068
:10161800F8000A168A11ED250A128A157A0883122B
:101628000313A2002207BC3E840083130008F600BF
:10163800840A00088403F700D230F8000A168A11D9
:10164800ED250A128A159B2B03307A06031D2D2BD4
:101658002E2B662B7A0883120313A2002207B83EAA
:10166800840083130008F600840A00088403F70046
:10167800C230F8000A168A11ED250A128A157A086E
:1016880083120313A2002207BA3E840083130008C2
:10169800F600840A00088403F7009230F8000A165E
:1016A8008A11ED250A128A15831603133808F600E5
:1016B8003908F700D230F8000A168A11ED250A1207
:1016C8008A159B2B04307A06031D6B2B6C2B9B2BE6
:1016D8007A0883120313A2002207B83E84008313FA
:1016E8000008F600840A00088403F700C230F800F6
:1016F8000A168A11ED250A128A158316031338086B
:10170800F6003908F7009230F8000A168A11ED251C
:101718000A128A15831603133A08F6003B08F700E5
:10172800D230F8000A168A11ED250A128A15080027
:10173800722C213083120313EC00EB01982C293012
:1017480083120313EC00A12B2D3083120313EC003A
:10175800A12B7A08003A0319A32B013A03199D2BF0
:10176800033A0319A32B013A0319A82B073A0319C3
:10177800A82B982C2B3083120313EC00EB0132308A
:1017880083120313EC00EB01982C83120313EC0172
:10179800EC0AEB01EB0A982C7A08003A0319C32BE0
:1017A800013A0319BE2B033A0319C32B013A031953
:1017B800C92B073A0319C92B982C1A308312031323
:1017C800EC00A12B1F3083120313EC00A12B7A0825
:1017D800003A0319E12B013A0319E12B033A0319E3
:1017E800E12B013A0319E62B073A0319E62B982C4B
:1017F800103083120313EC00EB01EB0A982C243011
:1018080083120313EC00EB01EB0A1C308312031361
:10181800EC00A12B1D3083120313EC00982C2E3002
:1018280083120313EC00EB01353083120313EC0031
:10183800EB01982C3C3083120313EC00A12B7A089F
:10184800003A0319182C013A0319132C033A031907
:10185800182C013A03191E2C073A03191E2C982C30
:10186800123083120313EC00EB013A2C143083126C
:101878000313EC00EB01982C7A08003A03193A2C70
:10188800013A0319342C033A03193A2C013A031983
:101898003A2C073A03193A2C982C06308312031372
:1018A800EC00982C103083120313EC00EB01153078
:1018B80083120313EC00EB01982C7A08003A031901
:1018C8005B2C013A0319562C033A03195B2C013A95
:1018D8000319E12B073A0319E12B982C7B08003AEE
:1018E8000319AD2B013A0319D02B033A0319EB2B3B
:1018F800013A0319FC2B073A0319032C013A03197F
:10190800092C033A03190E2C013A0319232C0F3A18
:101918000319402C013A0319512C033A0319612C7D
:10192800013A0319612C982C080083120313EE0165
:10193800EE0A1030ED000A128A11E3270A128A15FE
:101948003330F6009030F7008130F8000A168A111B
:10195800ED250A128A152030F6009130F700C430C0
:10196800F8000A168A11ED250A128A155330F60076
:101978009030F7009130F8000A168A11ED250A1206
:101988008A15DA2CB83083120313DC000B30DD0023
:101998000130DC020030031CDD03DD025C0A031D9C
:1019A800D92C5D0A031DD92CDA2CCC2C01300A164F
:1019B8008A11A1270A128A152F3A031DE42CE52C57
:1019C800C62C0A168A112D250A128A150A168A119A
:1019D8009D260A128A1501300A168A11A1270A12B1
:1019E8008A1583120313E000B830DE000B30DF00E5
:1019F8000130DE020030031CDF03DF025E0A031D34
:101A0800092D5F0A031D092D0A2DFC2CB73060062D
:101A1800031D0F2D102D1A2D6E03031D142D152DCA
:101A28001A2D0230EE001130ED00932DB73060060C
:101A3800031D1F2D202D562D02306E06031D252D4A
:101A4800262D562D0A128A159C230A128A150A1663
:101A58008A112D250A128A159B30F6009030F7005E
:101A68008030F8000A168A11ED250A128A1581308D
:101A7800F6009030F700C030F8000A168A11ED25FC
:101A88000A128A15A830F6009030F7009030F80056
:101A98000A168A11ED250A128A15033083120313D8
:101AA800EE00932D2F306006031D5B2D5C2D672DF6
:101AB80005306E06031D612D622D672D1215071561
:101AC8000430EE00932D932D60080A128A15B02178
:101AD8000A128A15A12D60080A128A15A6220A126E
:101AE8008A15A12D2F306006031D7B2D7C2D812D9D
:101AF8000430EE001230ED00EF2C1F306006031D9D
:101B0800862D872DA12DEE01EE0A1030ED00EF2C69
:101B180060080A128A113D200A128A15A12D6E0842
:101B2800013A0319682D033A03196F2D013A031975
:101B3800762D073A03198C2DA12D83120313ED017D
:101B4800EF2C0A128A110C287508803983120313A6
:101B5800A8007508A0002007AA00F41FB42DB52D11
:101B6800B62D2A142A080319BA2DBB2DCB2D2A0A03
:101B7800031DBF2DC02DC82D0030F5000030F40026
:101B88000030F3000030F200F417F501D32D0030D7
:101B9800F5000030F4000030F3000030F20079085E
:101BA8008039A900290828060319DB2DDC2DDD2D35
:101BB80028177908A0002007A900F81FE42DE52DB3
:101BC800E62D291429080319EA2DEB2DFB2D290AE6
:101BD800031DEF2DF02DF82D0030F9000030F8002E
:101BE8000030F7000030F600F817F901032E003036
:101BF800F9000030F8000030F7000030F6002A083D
:101C080029020318082E092E2F2E281F0C2E0D2E00
:101C1800112E8030FF007F08A8062A08AB0029088B
:101C2800AA002B08A9007208AB007608F2002B085E
:101C3800F6007308AB007708F3002B08F700740868
:101C4800AB007808F4002B08F8007508AB00790899
:101C5800F5002B08F900AB012908A000A101210813
:101C6800A3002A082002A200031CA3032308803A29
:101C7800FF0080307F02031D432E1A302202031C0E
:101C8800462E472E7E2E7508740473047204031DB5
:101C98004E2E502E0130512E003083120313AB000C
:101CA8000030F5000030F4000030F3000030F2009E
:101CB8002908AA00862E2B1C622E632E6A2E2B085A
:101CC800A0000310200C0138AB006C2E0310AB0CE5
:101CD800721C6F2E702E712EAB170130A000750D7F
:101CE800F50CF40CF30CF20CA00B732E0130FF0072
:101CF8007F08AA078312031329082A02031C852ECA
:101D0800862E5F2E281B892E8A2ED32E2A08031D85
:101D18008E2E8F2E982E0030F5000030F400003003
:101D2800F3000030F200FF2F7608F207770803115E
:101D38000318013E0319A12EF307780803110318AD
:101D4800013E0319A82EF407790803110318013E70
:101D58000319AF2EF507751CB22EB32E872F2B1C37
:101D6800B62EB72EBE2E2B08A0000310200C01386B
:101D7800AB00C02E0310AB0C721CC32EC42EC52E94
:101D8800AB170130A000750DF50CF40CF30CF20C38
:101D9800A00BC72E0130FF007F08AA07872F750800
:101DA800803AFF007908803A7F02031DE52E780803
:101DB8007402031DE52E77087302031DE52E7608CD
:101DC80072020318E82EE92E412FFF30A000FF30E1
:101DD800A100FF30A200FF30A3007608A400770816
:101DE800A5007808A6007908A7007208A40273085D
:101DF800031C730F002F012FA5027408031C740F16
:101E0800062F072FA6027508031C750F0C2F0D2F20
:101E1800A7022408A00725080318250F142F152F3B
:101E2800A10726080318260F1A2F1B2FA207270819
:101E38000318270AA3072308F5002208F40021083D
:101E4800F3002008F2008030FF007F08A806AB09E5
:101E5800AB0A2B08031D312F322F4F2F0130F20709
:101E6800003003180130F307003003180130F4077D
:101E7800003003180130F5074F2F7608F202770873
:101E8800031C770FF3027808031C780FF402790813
:101E9800031C790FF5027508740473047204031D9A
:101EA800562F572F832F2B08031D5B2F5C2F832F53
:101EB8000030F5000030F4000030F3000030F2008C
:101EC800FF2F0130A0000310F20DF30DF40DF50DF6
:101ED800A00B672FAB1F712F722F732F72142B1C3F
:101EE800762F772F7A2F0314AB0D7C2F0310AB0DB1
:101EF8002A080319802F812F832F0130AA02F41F8B
:101F0800862F872F652FA901AB1F8B2F8C2F9A2F18
:101F18002B087F390319912F922F952FA901A90A10
:101F28009A2F721C982F992F9A2F922F29080319EC
:101F38009E2F9F2FD32F0130F20700300318013056
:101F4800F307003003180130F4070030031801309C
:101F5800F507751CB02FB12FD32F7208A000730896
:101F6800A1007408A2007508A3000130A400230D85
:101F7800A30CA20CA10CA00CA40BBB2F2308F500EA
:101F88002208F4002108F3002008F2002A0A0319A5
:101F9800CE2FCF2FD32F0130FF007F08AA072A0AA0
:101FA8000319D72FD82FDD2F2A08031DDC2FDD2F8B
:101FB800EB2F0030F5000030F4000030F300003063
:101FC800F2002A08031DE92FEA2FEB2FA8012A1C8B
:101FD800EE2FEF2FF12FF417F52F7F30FF007F083A
:101FE800F4052A08A0000310200CF500A81FFD2FF7
:101FF800FE2FFF2FF51708002034203450344F34BB
:1020080057344534523449344E34473420344F34ED
:102018004E342034203420340034203457344134B2
:102028005334483449344E34473420344D344134E1
:102038004334483449344E344534003435342D342F
:1020480053345434413452345434203420343634E4
:102058002D345034413455345334453400345034DD
:10206800723465347334733420344B3465347934C2
:102078003534203454346F34203420340034503410
:1020880072346F3467342E34203443346F346D34F3
:1020980070346C34653474346534643400345734C3
:1020A80061347334683469346E34673420344D34A1
:1020B80061346334683469346E34653400345734B9
:1020C80061347334683469346E346734203450347E
:1020D80072346F346734723461346D34003452347E
:1020E80065346D346F3476346534203443346C345D
:1020F8006F347434683473340034203453345734B0
:1021080035343A342034533454344134523454340A
:102118002034003450346C3465346134733465349D
:10212800203443346C346F347334653400345034A1
:1021380072346534733473342034533477346934E7
:1021480074346334683400342034533457343634A8
:102158003A342034533454344F3450342034003417
:1021680044344F344F34523420343A3420344F34CA
:10217800503445344E340034573461347434653443
:10218800723420344C346534763465346C3400341D
:10219800463475346E346334743469346F346E3451
:1021A80020342D3400344134713475346134203492
:1021B800733474346F347234653400347334743463
:1021C800613469346E34203477346134733468345C
:1021D8000034453463346F3443346F3474347434A6
:1021E8006F346E3473340034443465346C34693479
:1021F8006334613474346534733400344234653480
:102208006434533468346534653474347334003456
:10221800573461347334683420344F346E346C343A
:1022280079340034523469346E34733465342B3461
:10223800443472347934003450346F34773465342C
:10224800723420344F344E34003457346F346F3482
:102258004C346C3465346E34733400344434723422
:10226800793420346F346E346C3479340034283443
:102278004D344D343A3453345334293400345034C3
:1022880072346F3467343A34203400344D34653452
:102298006434693475346D340034573468346934BF
:1022A80074346534733400345334703469346E34A0
:1022B80020340034543469346D3465343A3400348D
:1022C800523469346E3473346534003444346134C0
:1022D80069346C3479340034483465346134763484
:1022E80079340034543449344D3445340034483456
:1022F800693467346834003457346134733468346B
:1023080000344134753474346F3400344C346F34D1
:10231800773400344D34613478340034FF1B9C2901
:1023280083137F1883170008840A0319FF0A08001B
:102338007F087F398A000408840A0319FF0A82008B
:102A2A00831603138801091189100A168A1156267A
:102A3A000A168A1108008312031312149214FA3028
:102A4A008316031392008C148312031312110800C5
:102A5A00F20101300A168A1162250A168A11A63075
:102A6A00F600F60B362D000008007E088A007F0863
:102A7A0082000A168A113A250A168A118000840AE7
:102A8A0004087D0603190034FF0A0319FE0A3E2DC5
:102A9A0083120313A100F20120080A168A11622583
:102AAA000A168A11F201F20A8312031321080A167E
:102ABA008A1162250A168A110800F5007218662D15
:102ACA006A2D8312031309156D2D8312031309113D
:102ADA00750888008914A630F300F30B722D0000E4
:102AEA008312031389101B30F4009E30F300F30B9A
:102AFA007C2DF40B7C2D000008006A34913470346C
:102B0A009134F834903451349134E2349034ED34C1
:102B1A009034293491340234913416349134323455
:102B2A0091340C349134D7349034853491348A34C6
:102B3A0091344A3491347B3491348E3491348030D8
:102B4A0083120313C3064708F5004608F400450834
:102B5A00F3004408F2004308F9004208F80041086B
:102B6A00F7004008F6000A128A15A8250A168A11E3
:102B7A00750883120313C3007408C2007308C100E6
:102B8A007208C0000800F601F701721CCD2DCE2D87
:102B9A00D42D7408F6070318F70A7508F7070130E9
:102BAA000310F40DF50DFF3E031DD52D0130031062
:102BBA00F30CF20CFF3E031DDC2D72087304031D97
:102BCA00E72DE82DCA2D7708F3007608F2000800F1
:102BDA00F20178080A168A1162250A168A110B2E42
:102BEA00F201F20A7708FF00760884000A168A11B1
:102BFA0092210A168A110A168A1162250A168A1160
:102C0A000130F6070318F70A0030F707770883122E
:102C1A000313FF00760884000A168A1192210A1605
:102C2A008A11003A031D1A2E1B2EF52D0800831255
:102C3A0003138C1C212E222E4F2E013083160313D0
:102C4A00C2070318C30A0030C307E2304206043041
:102C5A0003194306031D322E332E4D2EC201C30122
:102C6A00831203136C0803193B2E3C2E3F2E0130AE
:102C7A00EC024D2E6C08031D432E442E4D2E6B087C
:102C8A000319482E492E4D2E0130EB023B30EC0041
:102C9A0083128C1071088A00700E8300FE0E7E0E5D
:102CAA000900C330F700CD30F600F60B5A2EF70BA9
:102CBA005A2EF20133300A168A1162250A168A112F
:102CCA001B30F7009E30F600F60B692EF70B692EC3
:102CDA000000F20133300A168A1162250A168A1197
:102CEA00A630F600F60B772E0000F20133300A16F2
:102CFA008A1162250A168A11822E832E0000F20199
:102D0A0001300A168A1162250A168A11A630F600BF
:102D1A00F60B8D2E0000F2010C300A168A1162257C
:102D2A000A168A11A630F600F60B992E0000080042
:102D3A0083120313A5012508803EA000FF300A165E
:102D4A008A114D250A168A110130FF007F08831265
:102D5A000313A50710302502031CB42EB52EA02E8E
:102D6A000030F6009030F700C030F8000A168A11D9
:102D7A00ED250A168A111130F6009030F7009030CE
:102D8A00F8000A168A11ED250A168A11831203130E
:102D9A00A6012608D03EA000FF300A168A114D254A
:102DAA000A168A110130FF007F0883120313A6074F
:102DBA0010302602031CE22EE32ECE2E4D30831253
:102DCA000313A4001930A3004F30A200A20BEB2E6C
:102DDA00A30BEB2EA40BEB2E080083120313061889
:102DEA00F72EF82E472F8714071112110A168A1187
:102DFA002D250A168A11B430F6009030F70080307B
:102E0A00F8000A168A11ED250A168A118E30F60084
:102E1A009030F7009030F8000A168A11ED250A164C
:102E2A008A1183120313061C1B2F1C2F162F0A1636
:102E3A008A112D250A168A118312031307151215F2
:102E4A008710CC30F6009030F7008030F8000A1670
:102E5A008A11ED250A168A117630F6009130F700AC
:102E6A00C030F8000A168A11ED250A168A11223096
:102E7A00F6009030F700D030F8000A168A11ED25D6
:102E8A000A168A110800F701F51F4C2F4D2F542FEF
:102E9A00F409F509F40A0319F50AF701F70AF31F09
:102EAA00572F582F5D2FF209F309F20A0319F30A73
:102EBA00720873040319622F632F922FF601F60A20
:102ECA00712F01300310F20DF30DFF3E031D672F22
:102EDA000130FF007F08F607F31F742F752F662F46
:102EEA0073087502031D7B2F72087402031C7E2F60
:102EFA007F2F852F7208F4027308031CF503F5026D
:102F0A0001300310F30CF20CFF3E031D862F013033
:102F1A00F602031D912F922F752F77080319962F0A
:102F2A00972F9C2FF409F509F40A0319F50A750875
:102F3A00F3007408F2000800F3007308031DA62FBB
:102F4A00A72FAC2F8312031306083F39FF2F3F30F8
:102F5A00831203130605F2003F3072060319B62FD7
:102F6A00B72FC22F6F080319BB2FBC2FC22FEF0137
:102F7A00E90106083F39EA00FE2F6F08031DC62F34
:102F8A00C72FD92F06083F396A06031DCD2FCE2F2A
:102F9A00D92F323069020318D32FD42FD92F0130F9
:102FAA00FF007F08E907FE2F32306906031DDE2F76
:102FBA00DF2FE62F0130FF007F08E9076A08803813
:102FCA00FF2F3F300605F2003F307206031DEE2F39
:102FDA00EF2FFE2F6F08031DF32FF42FFE2FEF01A3
:102FEA00EF0A323069020318FB2FFC2FFE2F6A0802
:062FFA00FF2F3F3008002C
:02400E00FB3F76
:00000001FF
